{
  "_format": "hh-sol-artifact-1",
  "contractName": "chai",
  "sourceName": "contracts/chai.sol",
  "abi": [
    {
      "inputs": [],
      "stateMutability": "nonpayable",
      "type": "constructor"
    },
    {
      "inputs": [
        {
          "internalType": "string",
          "name": "_name",
          "type": "string"
        },
        {
          "internalType": "string",
          "name": "_message",
          "type": "string"
        }
      ],
      "name": "buyChai",
      "outputs": [],
      "stateMutability": "payable",
      "type": "function"
    },
    {
      "inputs": [],
      "name": "getMemos",
      "outputs": [
        {
          "components": [
            {
              "internalType": "string",
              "name": "name",
              "type": "string"
            },
            {
              "internalType": "string",
              "name": "message",
              "type": "string"
            },
            {
              "internalType": "uint256",
              "name": "timestamp",
              "type": "uint256"
            },
            {
              "internalType": "address",
              "name": "from",
              "type": "address"
            }
          ],
          "internalType": "struct chai.Memo[]",
          "name": "",
          "type": "tuple[]"
        }
      ],
      "stateMutability": "view",
      "type": "function"
    }
  ],
  "bytecode": "0x608060405234801561001057600080fd5b5033600160006101000a81548173ffffffffffffffffffffffffffffffffffffffff021916908373ffffffffffffffffffffffffffffffffffffffff160217905550610969806100616000396000f3fe6080604052600436106100295760003560e01c80636a13d8591461002e578063865c51721461004a575b600080fd5b6100486004803603810190610043919061057a565b610075565b005b34801561005657600080fd5b5061005f61029e565b60405161006c9190610768565b60405180910390f35b600034116100b8576040517f08c379a00000000000000000000000000000000000000000000000000000000081526004016100af9061078a565b60405180910390fd5b600160009054906101000a900473ffffffffffffffffffffffffffffffffffffffff1673ffffffffffffffffffffffffffffffffffffffff166108fc349081150290604051600060405180830381858888f19350505050158015610120573d6000803e3d6000fd5b506000604051806080016040528086868080601f016020809104026020016040519081016040528093929190818152602001838380828437600081840152601f19601f82011690508083019250505050505050815260200184848080601f016020809104026020016040519081016040528093929190818152602001838380828437600081840152601f19601f8201169050808301925050505050505081526020014281526020013373ffffffffffffffffffffffffffffffffffffffff1681525090806001815401808255809150506001900390600052602060002090600402016000909190919091506000820151816000019080519060200190610227929190610481565b506020820151816001019080519060200190610244929190610481565b506040820151816002015560608201518160030160006101000a81548173ffffffffffffffffffffffffffffffffffffffff021916908373ffffffffffffffffffffffffffffffffffffffff160217905550505050505050565b60606000805480602002602001604051908101604052809291908181526020016000905b8282101561047857838290600052602060002090600402016040518060800160405290816000820180546102f59061087f565b80601f01602080910402602001604051908101604052809291908181526020018280546103219061087f565b801561036e5780601f106103435761010080835404028352916020019161036e565b820191906000526020600020905b81548152906001019060200180831161035157829003601f168201915b505050505081526020016001820180546103879061087f565b80601f01602080910402602001604051908101604052809291908181526020018280546103b39061087f565b80156104005780601f106103d557610100808354040283529160200191610400565b820191906000526020600020905b8154815290600101906020018083116103e357829003601f168201915b50505050508152602001600282015481526020016003820160009054906101000a900473ffffffffffffffffffffffffffffffffffffffff1673ffffffffffffffffffffffffffffffffffffffff1673ffffffffffffffffffffffffffffffffffffffff1681525050815260200190600101906102c2565b50505050905090565b82805461048d9061087f565b90600052602060002090601f0160209004810192826104af57600085556104f6565b82601f106104c857805160ff19168380011785556104f6565b828001600101855582156104f6579182015b828111156104f55782518255916020019190600101906104da565b5b5090506105039190610507565b5090565b5b80821115610520576000816000905550600101610508565b5090565b60008083601f84011261053a576105396108e5565b5b8235905067ffffffffffffffff811115610557576105566108e0565b5b602083019150836001820283011115610573576105726108ea565b5b9250929050565b60008060008060408587031215610594576105936108f4565b5b600085013567ffffffffffffffff8111156105b2576105b16108ef565b5b6105be87828801610524565b9450945050602085013567ffffffffffffffff8111156105e1576105e06108ef565b5b6105ed87828801610524565b925092505092959194509250565b600061060783836106ef565b905092915050565b61061881610810565b82525050565b6000610629826107ba565b61063381856107dd565b935083602082028501610645856107aa565b8060005b85811015610681578484038952815161066285826105fb565b945061066d836107d0565b925060208a01995050600181019050610649565b50829750879550505050505092915050565b600061069e826107c5565b6106a881856107ee565b93506106b881856020860161084c565b6106c1816108f9565b840191505092915050565b60006106d9601c836107ff565b91506106e48261090a565b602082019050919050565b6000608083016000830151848203600086015261070c8282610693565b915050602083015184820360208601526107268282610693565b915050604083015161073b6040860182610759565b50606083015161074e606086018261060f565b508091505092915050565b61076281610842565b82525050565b60006020820190508181036000830152610782818461061e565b905092915050565b600060208201905081810360008301526107a3816106cc565b9050919050565b6000819050602082019050919050565b600081519050919050565b600081519050919050565b6000602082019050919050565b600082825260208201905092915050565b600082825260208201905092915050565b600082825260208201905092915050565b600061081b82610822565b9050919050565b600073ffffffffffffffffffffffffffffffffffffffff82169050919050565b6000819050919050565b60005b8381101561086a57808201518184015260208101905061084f565b83811115610879576000848401525b50505050565b6000600282049050600182168061089757607f821691505b602082108114156108ab576108aa6108b1565b5b50919050565b7f4e487b7100000000000000000000000000000000000000000000000000000000600052602260045260246000fd5b600080fd5b600080fd5b600080fd5b600080fd5b600080fd5b6000601f19601f8301169050919050565b7f506c6561736520706179206d6f7265207468616e20302065746865720000000060008201525056fea2646970667358221220e94c26927c4208db0582da9a6c7022ebeba3da25806ff3e46cb2ab05ea8ebae464736f6c63430008070033",
  "linkReferences": {},
  "deployedLinkReferences": {}
}